{
  "_format": "hh-sol-artifact-1",
  "contractName": "NFTassets",
  "sourceName": "contracts/NFTassets.sol",
  "abi": [
    {
      "inputs": [],
      "stateMutability": "nonpayable",
      "type": "constructor"
    },
    {
      "inputs": [
        {
          "internalType": "address",
          "name": "sender",
          "type": "address"
        },
        {
          "internalType": "uint256",
          "name": "tokenId",
          "type": "uint256"
        },
        {
          "internalType": "address",
          "name": "owner",
          "type": "address"
        }
      ],
      "name": "ERC721IncorrectOwner",
      "type": "error"
    },
    {
      "inputs": [
        {
          "internalType": "address",
          "name": "operator",
          "type": "address"
        },
        {
          "internalType": "uint256",
          "name": "tokenId",
          "type": "uint256"
        }
      ],
      "name": "ERC721InsufficientApproval",
      "type": "error"
    },
    {
      "inputs": [
        {
          "internalType": "address",
          "name": "approver",
          "type": "address"
        }
      ],
      "name": "ERC721InvalidApprover",
      "type": "error"
    },
    {
      "inputs": [
        {
          "internalType": "address",
          "name": "operator",
          "type": "address"
        }
      ],
      "name": "ERC721InvalidOperator",
      "type": "error"
    },
    {
      "inputs": [
        {
          "internalType": "address",
          "name": "owner",
          "type": "address"
        }
      ],
      "name": "ERC721InvalidOwner",
      "type": "error"
    },
    {
      "inputs": [
        {
          "internalType": "address",
          "name": "receiver",
          "type": "address"
        }
      ],
      "name": "ERC721InvalidReceiver",
      "type": "error"
    },
    {
      "inputs": [
        {
          "internalType": "address",
          "name": "sender",
          "type": "address"
        }
      ],
      "name": "ERC721InvalidSender",
      "type": "error"
    },
    {
      "inputs": [
        {
          "internalType": "uint256",
          "name": "tokenId",
          "type": "uint256"
        }
      ],
      "name": "ERC721NonexistentToken",
      "type": "error"
    },
    {
      "anonymous": false,
      "inputs": [
        {
          "indexed": true,
          "internalType": "address",
          "name": "owner",
          "type": "address"
        },
        {
          "indexed": true,
          "internalType": "address",
          "name": "approved",
          "type": "address"
        },
        {
          "indexed": true,
          "internalType": "uint256",
          "name": "tokenId",
          "type": "uint256"
        }
      ],
      "name": "Approval",
      "type": "event"
    },
    {
      "anonymous": false,
      "inputs": [
        {
          "indexed": true,
          "internalType": "address",
          "name": "owner",
          "type": "address"
        },
        {
          "indexed": true,
          "internalType": "address",
          "name": "operator",
          "type": "address"
        },
        {
          "indexed": false,
          "internalType": "bool",
          "name": "approved",
          "type": "bool"
        }
      ],
      "name": "ApprovalForAll",
      "type": "event"
    },
    {
      "anonymous": false,
      "inputs": [
        {
          "indexed": false,
          "internalType": "uint256",
          "name": "_fromTokenId",
          "type": "uint256"
        },
        {
          "indexed": false,
          "internalType": "uint256",
          "name": "_toTokenId",
          "type": "uint256"
        }
      ],
      "name": "BatchMetadataUpdate",
      "type": "event"
    },
    {
      "anonymous": false,
      "inputs": [
        {
          "indexed": true,
          "internalType": "uint256",
          "name": "tokenId",
          "type": "uint256"
        },
        {
          "indexed": false,
          "internalType": "address",
          "name": "seller",
          "type": "address"
        },
        {
          "indexed": false,
          "internalType": "uint256",
          "name": "price",
          "type": "uint256"
        },
        {
          "indexed": false,
          "internalType": "bool",
          "name": "sold",
          "type": "bool"
        }
      ],
      "name": "MarketItemCreated",
      "type": "event"
    },
    {
      "anonymous": false,
      "inputs": [
        {
          "indexed": false,
          "internalType": "uint256",
          "name": "_tokenId",
          "type": "uint256"
        }
      ],
      "name": "MetadataUpdate",
      "type": "event"
    },
    {
      "anonymous": false,
      "inputs": [
        {
          "indexed": true,
          "internalType": "address",
          "name": "from",
          "type": "address"
        },
        {
          "indexed": true,
          "internalType": "address",
          "name": "to",
          "type": "address"
        },
        {
          "indexed": true,
          "internalType": "uint256",
          "name": "tokenId",
          "type": "uint256"
        }
      ],
      "name": "Transfer",
      "type": "event"
    },
    {
      "inputs": [
        {
          "internalType": "address",
          "name": "to",
          "type": "address"
        },
        {
          "internalType": "uint256",
          "name": "tokenId",
          "type": "uint256"
        }
      ],
      "name": "approve",
      "outputs": [],
      "stateMutability": "nonpayable",
      "type": "function"
    },
    {
      "inputs": [
        {
          "internalType": "address",
          "name": "owner",
          "type": "address"
        }
      ],
      "name": "balanceOf",
      "outputs": [
        {
          "internalType": "uint256",
          "name": "",
          "type": "uint256"
        }
      ],
      "stateMutability": "view",
      "type": "function"
    },
    {
      "inputs": [
        {
          "internalType": "uint256",
          "name": "tokenId",
          "type": "uint256"
        }
      ],
      "name": "createMarketSale",
      "outputs": [],
      "stateMutability": "payable",
      "type": "function"
    },
    {
      "inputs": [
        {
          "internalType": "string",
          "name": "tokenURI",
          "type": "string"
        },
        {
          "internalType": "uint256",
          "name": "price",
          "type": "uint256"
        }
      ],
      "name": "createToken",
      "outputs": [
        {
          "internalType": "uint256",
          "name": "",
          "type": "uint256"
        }
      ],
      "stateMutability": "payable",
      "type": "function"
    },
    {
      "inputs": [],
      "name": "fetchMarketItems",
      "outputs": [
        {
          "components": [
            {
              "internalType": "address payable",
              "name": "seller",
              "type": "address"
            },
            {
              "internalType": "uint256",
              "name": "price",
              "type": "uint256"
            },
            {
              "internalType": "bool",
              "name": "sold",
              "type": "bool"
            }
          ],
          "internalType": "struct NFTassets.MarketItem[]",
          "name": "",
          "type": "tuple[]"
        }
      ],
      "stateMutability": "view",
      "type": "function"
    },
    {
      "inputs": [
        {
          "internalType": "uint256",
          "name": "tokenId",
          "type": "uint256"
        }
      ],
      "name": "getApproved",
      "outputs": [
        {
          "internalType": "address",
          "name": "",
          "type": "address"
        }
      ],
      "stateMutability": "view",
      "type": "function"
    },
    {
      "inputs": [],
      "name": "getListingPrice",
      "outputs": [
        {
          "internalType": "uint256",
          "name": "",
          "type": "uint256"
        }
      ],
      "stateMutability": "view",
      "type": "function"
    },
    {
      "inputs": [
        {
          "internalType": "address",
          "name": "owner",
          "type": "address"
        },
        {
          "internalType": "address",
          "name": "operator",
          "type": "address"
        }
      ],
      "name": "isApprovedForAll",
      "outputs": [
        {
          "internalType": "bool",
          "name": "",
          "type": "bool"
        }
      ],
      "stateMutability": "view",
      "type": "function"
    },
    {
      "inputs": [],
      "name": "name",
      "outputs": [
        {
          "internalType": "string",
          "name": "",
          "type": "string"
        }
      ],
      "stateMutability": "view",
      "type": "function"
    },
    {
      "inputs": [
        {
          "internalType": "uint256",
          "name": "tokenId",
          "type": "uint256"
        }
      ],
      "name": "ownerOf",
      "outputs": [
        {
          "internalType": "address",
          "name": "",
          "type": "address"
        }
      ],
      "stateMutability": "view",
      "type": "function"
    },
    {
      "inputs": [
        {
          "internalType": "address",
          "name": "from",
          "type": "address"
        },
        {
          "internalType": "address",
          "name": "to",
          "type": "address"
        },
        {
          "internalType": "uint256",
          "name": "tokenId",
          "type": "uint256"
        }
      ],
      "name": "safeTransferFrom",
      "outputs": [],
      "stateMutability": "nonpayable",
      "type": "function"
    },
    {
      "inputs": [
        {
          "internalType": "address",
          "name": "from",
          "type": "address"
        },
        {
          "internalType": "address",
          "name": "to",
          "type": "address"
        },
        {
          "internalType": "uint256",
          "name": "tokenId",
          "type": "uint256"
        },
        {
          "internalType": "bytes",
          "name": "data",
          "type": "bytes"
        }
      ],
      "name": "safeTransferFrom",
      "outputs": [],
      "stateMutability": "nonpayable",
      "type": "function"
    },
    {
      "inputs": [
        {
          "internalType": "address",
          "name": "operator",
          "type": "address"
        },
        {
          "internalType": "bool",
          "name": "approved",
          "type": "bool"
        }
      ],
      "name": "setApprovalForAll",
      "outputs": [],
      "stateMutability": "nonpayable",
      "type": "function"
    },
    {
      "inputs": [
        {
          "internalType": "bytes4",
          "name": "interfaceId",
          "type": "bytes4"
        }
      ],
      "name": "supportsInterface",
      "outputs": [
        {
          "internalType": "bool",
          "name": "",
          "type": "bool"
        }
      ],
      "stateMutability": "view",
      "type": "function"
    },
    {
      "inputs": [],
      "name": "symbol",
      "outputs": [
        {
          "internalType": "string",
          "name": "",
          "type": "string"
        }
      ],
      "stateMutability": "view",
      "type": "function"
    },
    {
      "inputs": [
        {
          "internalType": "uint256",
          "name": "tokenId",
          "type": "uint256"
        }
      ],
      "name": "tokenURI",
      "outputs": [
        {
          "internalType": "string",
          "name": "",
          "type": "string"
        }
      ],
      "stateMutability": "view",
      "type": "function"
    },
    {
      "inputs": [
        {
          "internalType": "address",
          "name": "from",
          "type": "address"
        },
        {
          "internalType": "address",
          "name": "to",
          "type": "address"
        },
        {
          "internalType": "uint256",
          "name": "tokenId",
          "type": "uint256"
        }
      ],
      "name": "transferFrom",
      "outputs": [],
      "stateMutability": "nonpayable",
      "type": "function"
    },
    {
      "inputs": [
        {
          "internalType": "uint256",
          "name": "_listingPrice",
          "type": "uint256"
        }
      ],
      "name": "updateListingPrice",
      "outputs": [],
      "stateMutability": "payable",
      "type": "function"
    }
  ],
  "bytecode": "0x60806040526658d15e176280006009553480156200001c57600080fd5b506040518060400160405280601081526020017f4d657461766572736520546f6b656e73000000000000000000000000000000008152506040518060400160405280600481526020017f4d4554540000000000000000000000000000000000000000000000000000000081525081600090816200009a919062000370565b508060019081620000ac919062000370565b50505033600a60006101000a81548173ffffffffffffffffffffffffffffffffffffffff021916908373ffffffffffffffffffffffffffffffffffffffff16021790555062000457565b600081519050919050565b7f4e487b7100000000000000000000000000000000000000000000000000000000600052604160045260246000fd5b7f4e487b7100000000000000000000000000000000000000000000000000000000600052602260045260246000fd5b600060028204905060018216806200017857607f821691505b6020821081036200018e576200018d62000130565b5b50919050565b60008190508160005260206000209050919050565b60006020601f8301049050919050565b600082821b905092915050565b600060088302620001f87fffffffffffffffffffffffffffffffffffffffffffffffffffffffffffffffff82620001b9565b620002048683620001b9565b95508019841693508086168417925050509392505050565b6000819050919050565b6000819050919050565b6000620002516200024b62000245846200021c565b62000226565b6200021c565b9050919050565b6000819050919050565b6200026d8362000230565b620002856200027c8262000258565b848454620001c6565b825550505050565b600090565b6200029c6200028d565b620002a981848462000262565b505050565b5b81811015620002d157620002c560008262000292565b600181019050620002af565b5050565b601f8211156200032057620002ea8162000194565b620002f584620001a9565b8101602085101562000305578190505b6200031d6200031485620001a9565b830182620002ae565b50505b505050565b600082821c905092915050565b6000620003456000198460080262000325565b1980831691505092915050565b600062000360838362000332565b9150826002028217905092915050565b6200037b82620000f6565b67ffffffffffffffff81111562000397576200039662000101565b5b620003a382546200015f565b620003b0828285620002d5565b600060209050601f831160018114620003e85760008415620003d3578287015190505b620003df858262000352565b8655506200044f565b601f198416620003f88662000194565b60005b828110156200042257848901518255600182019150602085019450602081019050620003fb565b868310156200044257848901516200043e601f89168262000332565b8355505b6001600288020188555050505b505050505050565b6130af80620004676000396000f3fe6080604052600436106101095760003560e01c806370a0823111610095578063ae677aa311610064578063ae677aa314610382578063b88d4fde1461039e578063be9af536146103c7578063c87b56dd146103e3578063e985e9c51461042057610109565b806370a08231146102c157806372b3b620146102fe57806395d89b411461032e578063a22cb4651461035957610109565b80630f08efe0116100dc5780630f08efe0146101dc57806312e855851461020757806323b872dd1461023257806342842e0e1461025b5780636352211e1461028457610109565b806301ffc9a71461010e57806306fdde031461014b578063081812fc14610176578063095ea7b3146101b3575b600080fd5b34801561011a57600080fd5b506101356004803603810190610130919061208d565b61045d565b60405161014291906120d5565b60405180910390f35b34801561015757600080fd5b506101606104be565b60405161016d9190612180565b60405180910390f35b34801561018257600080fd5b5061019d600480360381019061019891906121d8565b610550565b6040516101aa9190612246565b60405180910390f35b3480156101bf57600080fd5b506101da60048036038101906101d5919061228d565b61056c565b005b3480156101e857600080fd5b506101f1610582565b6040516101fe91906123fd565b60405180910390f35b34801561021357600080fd5b5061021c610712565b604051610229919061242e565b60405180910390f35b34801561023e57600080fd5b5061025960048036038101906102549190612449565b61071c565b005b34801561026757600080fd5b50610282600480360381019061027d9190612449565b61081e565b005b34801561029057600080fd5b506102ab60048036038101906102a691906121d8565b61083e565b6040516102b89190612246565b60405180910390f35b3480156102cd57600080fd5b506102e860048036038101906102e3919061249c565b610850565b6040516102f5919061242e565b60405180910390f35b610318600480360381019061031391906125fe565b61090a565b604051610325919061242e565b60405180910390f35b34801561033a57600080fd5b50610343610953565b6040516103509190612180565b60405180910390f35b34801561036557600080fd5b50610380600480360381019061037b9190612686565b6109e5565b005b61039c600480360381019061039791906121d8565b6109fb565b005b3480156103aa57600080fd5b506103c560048036038101906103c09190612767565b610a95565b005b6103e160048036038101906103dc91906121d8565b610ab2565b005b3480156103ef57600080fd5b5061040a600480360381019061040591906121d8565b610c69565b6040516104179190612180565b60405180910390f35b34801561042c57600080fd5b50610447600480360381019061044291906127ea565b610d7c565b60405161045491906120d5565b60405180910390f35b6000634906490660e01b7bffffffffffffffffffffffffffffffffffffffffffffffffffffffff1916827bffffffffffffffffffffffffffffffffffffffffffffffffffffffff191614806104b757506104b682610e10565b5b9050919050565b6060600080546104cd90612859565b80601f01602080910402602001604051908101604052809291908181526020018280546104f990612859565b80156105465780601f1061051b57610100808354040283529160200191610546565b820191906000526020600020905b81548152906001019060200180831161052957829003601f168201915b5050505050905090565b600061055b82610ef2565b5061056582610f7a565b9050919050565b61057e8282610579610fb7565b610fbf565b5050565b606060006007549050600060085460075461059d91906128b9565b90506000808267ffffffffffffffff8111156105bc576105bb6124d3565b5b6040519080825280602002602001820160405280156105f557816020015b6105e2611fe8565b8152602001906001900390816105da5790505b5090506000600190505b84811161070757600b600082815260200190815260200160002060020160009054906101000a900460ff166106f457600b60008281526020019081526020016000206040518060600160405290816000820160009054906101000a900473ffffffffffffffffffffffffffffffffffffffff1673ffffffffffffffffffffffffffffffffffffffff1673ffffffffffffffffffffffffffffffffffffffff168152602001600182015481526020016002820160009054906101000a900460ff1615151515815250508284815181106106da576106d96128ed565b5b602002602001018190525082806106f09061291c565b9350505b80806106ff9061291c565b9150506105ff565b508094505050505090565b6000600954905090565b600073ffffffffffffffffffffffffffffffffffffffff168273ffffffffffffffffffffffffffffffffffffffff160361078e5760006040517f64a0ae920000000000000000000000000000000000000000000000000000000081526004016107859190612246565b60405180910390fd5b60006107a2838361079d610fb7565b610fd1565b90508373ffffffffffffffffffffffffffffffffffffffff168173ffffffffffffffffffffffffffffffffffffffff1614610818578382826040517f64283d7b00000000000000000000000000000000000000000000000000000000815260040161080f93929190612964565b60405180910390fd5b50505050565b61083983838360405180602001604052806000815250610a95565b505050565b600061084982610ef2565b9050919050565b60008073ffffffffffffffffffffffffffffffffffffffff168273ffffffffffffffffffffffffffffffffffffffff16036108c35760006040517f89c62b640000000000000000000000000000000000000000000000000000000081526004016108ba9190612246565b60405180910390fd5b600360008373ffffffffffffffffffffffffffffffffffffffff1673ffffffffffffffffffffffffffffffffffffffff168152602001908152602001600020549050919050565b60006007600081548092919061091f9061291c565b91905055506000600754905061093530826111eb565b61093f81856112e4565b6109498184611340565b8091505092915050565b60606001805461096290612859565b80601f016020809104026020016040519081016040528092919081815260200182805461098e90612859565b80156109db5780601f106109b0576101008083540402835291602001916109db565b820191906000526020600020905b8154815290600101906020018083116109be57829003601f168201915b5050505050905090565b6109f76109f0610fb7565b83836114c3565b5050565b3373ffffffffffffffffffffffffffffffffffffffff16600a60009054906101000a900473ffffffffffffffffffffffffffffffffffffffff1673ffffffffffffffffffffffffffffffffffffffff1614610a8b576040517f08c379a0000000000000000000000000000000000000000000000000000000008152600401610a8290612a0d565b60405180910390fd5b8060098190555050565b610aa084848461071c565b610aac84848484611632565b50505050565b6000600b600083815260200190815260200160002090508060020160009054906101000a900460ff1615610b1b576040517f08c379a0000000000000000000000000000000000000000000000000000000008152600401610b1290612a79565b60405180910390fd5b600081600101549050803414610b66576040517f08c379a0000000000000000000000000000000000000000000000000000000008152600401610b5d90612b0b565b60405180910390fd5b60018260020160006101000a81548160ff0219169083151502179055508160000160009054906101000a900473ffffffffffffffffffffffffffffffffffffffff1673ffffffffffffffffffffffffffffffffffffffff166108fc349081150290604051600060405180830381858888f19350505050158015610bed573d6000803e3d6000fd5b50610bf93033856117e9565b600a60009054906101000a900473ffffffffffffffffffffffffffffffffffffffff1673ffffffffffffffffffffffffffffffffffffffff166108fc6009549081150290604051600060405180830381858888f19350505050158015610c63573d6000803e3d6000fd5b50505050565b6060610c7482610ef2565b506000600660008481526020019081526020016000208054610c9590612859565b80601f0160208091040260200160405190810160405280929190818152602001828054610cc190612859565b8015610d0e5780601f10610ce357610100808354040283529160200191610d0e565b820191906000526020600020905b815481529060010190602001808311610cf157829003601f168201915b505050505090506000610d1f611956565b90506000815103610d34578192505050610d77565b600082511115610d69578082604051602001610d51929190612b67565b60405160208183030381529060405292505050610d77565b610d728461196d565b925050505b919050565b6000600560008473ffffffffffffffffffffffffffffffffffffffff1673ffffffffffffffffffffffffffffffffffffffff16815260200190815260200160002060008373ffffffffffffffffffffffffffffffffffffffff1673ffffffffffffffffffffffffffffffffffffffff16815260200190815260200160002060009054906101000a900460ff16905092915050565b60007f80ac58cd000000000000000000000000000000000000000000000000000000007bffffffffffffffffffffffffffffffffffffffffffffffffffffffff1916827bffffffffffffffffffffffffffffffffffffffffffffffffffffffff19161480610edb57507f5b5e139f000000000000000000000000000000000000000000000000000000007bffffffffffffffffffffffffffffffffffffffffffffffffffffffff1916827bffffffffffffffffffffffffffffffffffffffffffffffffffffffff1916145b80610eeb5750610eea826119d6565b5b9050919050565b600080610efe83611a40565b9050600073ffffffffffffffffffffffffffffffffffffffff168173ffffffffffffffffffffffffffffffffffffffff1603610f7157826040517f7e273289000000000000000000000000000000000000000000000000000000008152600401610f68919061242e565b60405180910390fd5b80915050919050565b60006004600083815260200190815260200160002060009054906101000a900473ffffffffffffffffffffffffffffffffffffffff169050919050565b600033905090565b610fcc8383836001611a7d565b505050565b600080610fdd84611a40565b9050600073ffffffffffffffffffffffffffffffffffffffff168373ffffffffffffffffffffffffffffffffffffffff161461101f5761101e818486611c42565b5b600073ffffffffffffffffffffffffffffffffffffffff168173ffffffffffffffffffffffffffffffffffffffff16146110b057611061600085600080611a7d565b6001600360008373ffffffffffffffffffffffffffffffffffffffff1673ffffffffffffffffffffffffffffffffffffffff168152602001908152602001600020600082825403925050819055505b600073ffffffffffffffffffffffffffffffffffffffff168573ffffffffffffffffffffffffffffffffffffffff1614611133576001600360008773ffffffffffffffffffffffffffffffffffffffff1673ffffffffffffffffffffffffffffffffffffffff168152602001908152602001600020600082825401925050819055505b846002600086815260200190815260200160002060006101000a81548173ffffffffffffffffffffffffffffffffffffffff021916908373ffffffffffffffffffffffffffffffffffffffff160217905550838573ffffffffffffffffffffffffffffffffffffffff168273ffffffffffffffffffffffffffffffffffffffff167fddf252ad1be2c89b69c2b068fc378daa952ba7f163c4a11628f55a4df523b3ef60405160405180910390a4809150509392505050565b600073ffffffffffffffffffffffffffffffffffffffff168273ffffffffffffffffffffffffffffffffffffffff160361125d5760006040517f64a0ae920000000000000000000000000000000000000000000000000000000081526004016112549190612246565b60405180910390fd5b600061126b83836000610fd1565b9050600073ffffffffffffffffffffffffffffffffffffffff168173ffffffffffffffffffffffffffffffffffffffff16146112df5760006040517f73c6ac6e0000000000000000000000000000000000000000000000000000000081526004016112d69190612246565b60405180910390fd5b505050565b806006600084815260200190815260200160002090816113049190612d37565b507ff8e1a15aba9398e019f0b49df1a4fde98ee17ae345cb5f6b5e2c27f5033e8ce782604051611334919061242e565b60405180910390a15050565b60008111611383576040517f08c379a000000000000000000000000000000000000000000000000000000000815260040161137a90612e55565b60405180910390fd5b60095434146113c7576040517f08c379a00000000000000000000000000000000000000000000000000000000081526004016113be90612ee7565b60405180910390fd5b60405180606001604052803373ffffffffffffffffffffffffffffffffffffffff16815260200182815260200160001515815250600b600084815260200190815260200160002060008201518160000160006101000a81548173ffffffffffffffffffffffffffffffffffffffff021916908373ffffffffffffffffffffffffffffffffffffffff1602179055506020820151816001015560408201518160020160006101000a81548160ff021916908315150217905550905050817f48836ef70a1bc65b40c471b96b77b4680e11aea31afbe3f4f050fa7961fd3c76338360006040516114b793929190612f07565b60405180910390a25050565b600073ffffffffffffffffffffffffffffffffffffffff168273ffffffffffffffffffffffffffffffffffffffff160361153457816040517f5b08ba1800000000000000000000000000000000000000000000000000000000815260040161152b9190612246565b60405180910390fd5b80600560008573ffffffffffffffffffffffffffffffffffffffff1673ffffffffffffffffffffffffffffffffffffffff16815260200190815260200160002060008473ffffffffffffffffffffffffffffffffffffffff1673ffffffffffffffffffffffffffffffffffffffff16815260200190815260200160002060006101000a81548160ff0219169083151502179055508173ffffffffffffffffffffffffffffffffffffffff168373ffffffffffffffffffffffffffffffffffffffff167f17307eab39ab6107e8899845ad3d59bd9653f200f220920489ca2b5937696c318360405161162591906120d5565b60405180910390a3505050565b60008373ffffffffffffffffffffffffffffffffffffffff163b11156117e3578273ffffffffffffffffffffffffffffffffffffffff1663150b7a02611676610fb7565b8685856040518563ffffffff1660e01b81526004016116989493929190612f93565b6020604051808303816000875af19250505080156116d457506040513d601f19601f820116820180604052508101906116d19190612ff4565b60015b611758573d8060008114611704576040519150601f19603f3d011682016040523d82523d6000602084013e611709565b606091505b50600081510361175057836040517f64a0ae920000000000000000000000000000000000000000000000000000000081526004016117479190612246565b60405180910390fd5b805181602001fd5b63150b7a0260e01b7bffffffffffffffffffffffffffffffffffffffffffffffffffffffff1916817bffffffffffffffffffffffffffffffffffffffffffffffffffffffff1916146117e157836040517f64a0ae920000000000000000000000000000000000000000000000000000000081526004016117d89190612246565b60405180910390fd5b505b50505050565b600073ffffffffffffffffffffffffffffffffffffffff168273ffffffffffffffffffffffffffffffffffffffff160361185b5760006040517f64a0ae920000000000000000000000000000000000000000000000000000000081526004016118529190612246565b60405180910390fd5b600061186983836000610fd1565b9050600073ffffffffffffffffffffffffffffffffffffffff168173ffffffffffffffffffffffffffffffffffffffff16036118dc57816040517f7e2732890000000000000000000000000000000000000000000000000000000081526004016118d3919061242e565b60405180910390fd5b8373ffffffffffffffffffffffffffffffffffffffff168173ffffffffffffffffffffffffffffffffffffffff1614611950578382826040517f64283d7b00000000000000000000000000000000000000000000000000000000815260040161194793929190612964565b60405180910390fd5b50505050565b606060405180602001604052806000815250905090565b606061197882610ef2565b506000611983611956565b905060008151116119a357604051806020016040528060008152506119ce565b806119ad84611d06565b6040516020016119be929190612b67565b6040516020818303038152906040525b915050919050565b60007f01ffc9a7000000000000000000000000000000000000000000000000000000007bffffffffffffffffffffffffffffffffffffffffffffffffffffffff1916827bffffffffffffffffffffffffffffffffffffffffffffffffffffffff1916149050919050565b60006002600083815260200190815260200160002060009054906101000a900473ffffffffffffffffffffffffffffffffffffffff169050919050565b8080611ab65750600073ffffffffffffffffffffffffffffffffffffffff168273ffffffffffffffffffffffffffffffffffffffff1614155b15611bea576000611ac684610ef2565b9050600073ffffffffffffffffffffffffffffffffffffffff168373ffffffffffffffffffffffffffffffffffffffff1614158015611b3157508273ffffffffffffffffffffffffffffffffffffffff168173ffffffffffffffffffffffffffffffffffffffff1614155b8015611b445750611b428184610d7c565b155b15611b8657826040517fa9fbf51f000000000000000000000000000000000000000000000000000000008152600401611b7d9190612246565b60405180910390fd5b8115611be857838573ffffffffffffffffffffffffffffffffffffffff168273ffffffffffffffffffffffffffffffffffffffff167f8c5be1e5ebec7d5bd14f71427d1e84f3dd0314c0f7b2291e5b200ac8c7c3b92560405160405180910390a45b505b836004600085815260200190815260200160002060006101000a81548173ffffffffffffffffffffffffffffffffffffffff021916908373ffffffffffffffffffffffffffffffffffffffff16021790555050505050565b611c4d838383611dd4565b611d0157600073ffffffffffffffffffffffffffffffffffffffff168373ffffffffffffffffffffffffffffffffffffffff1603611cc257806040517f7e273289000000000000000000000000000000000000000000000000000000008152600401611cb9919061242e565b60405180910390fd5b81816040517f177e802f000000000000000000000000000000000000000000000000000000008152600401611cf8929190613021565b60405180910390fd5b505050565b606060006001611d1584611e95565b01905060008167ffffffffffffffff811115611d3457611d336124d3565b5b6040519080825280601f01601f191660200182016040528015611d665781602001600182028036833780820191505090505b509050600082602001820190505b600115611dc9578080600190039150507f3031323334353637383961626364656600000000000000000000000000000000600a86061a8153600a8581611dbd57611dbc61304a565b5b04945060008503611d74575b819350505050919050565b60008073ffffffffffffffffffffffffffffffffffffffff168373ffffffffffffffffffffffffffffffffffffffff1614158015611e8c57508273ffffffffffffffffffffffffffffffffffffffff168473ffffffffffffffffffffffffffffffffffffffff161480611e4d5750611e4c8484610d7c565b5b80611e8b57508273ffffffffffffffffffffffffffffffffffffffff16611e7383610f7a565b73ffffffffffffffffffffffffffffffffffffffff16145b5b90509392505050565b600080600090507a184f03e93ff9f4daa797ed6e38ed64bf6a1f0100000000000000008310611ef3577a184f03e93ff9f4daa797ed6e38ed64bf6a1f0100000000000000008381611ee957611ee861304a565b5b0492506040810190505b6d04ee2d6d415b85acef81000000008310611f30576d04ee2d6d415b85acef81000000008381611f2657611f2561304a565b5b0492506020810190505b662386f26fc100008310611f5f57662386f26fc100008381611f5557611f5461304a565b5b0492506010810190505b6305f5e1008310611f88576305f5e1008381611f7e57611f7d61304a565b5b0492506008810190505b6127108310611fad576127108381611fa357611fa261304a565b5b0492506004810190505b60648310611fd05760648381611fc657611fc561304a565b5b0492506002810190505b600a8310611fdf576001810190505b80915050919050565b6040518060600160405280600073ffffffffffffffffffffffffffffffffffffffff168152602001600081526020016000151581525090565b6000604051905090565b600080fd5b600080fd5b60007fffffffff0000000000000000000000000000000000000000000000000000000082169050919050565b61206a81612035565b811461207557600080fd5b50565b60008135905061208781612061565b92915050565b6000602082840312156120a3576120a261202b565b5b60006120b184828501612078565b91505092915050565b60008115159050919050565b6120cf816120ba565b82525050565b60006020820190506120ea60008301846120c6565b92915050565b600081519050919050565b600082825260208201905092915050565b60005b8381101561212a57808201518184015260208101905061210f565b60008484015250505050565b6000601f19601f8301169050919050565b6000612152826120f0565b61215c81856120fb565b935061216c81856020860161210c565b61217581612136565b840191505092915050565b6000602082019050818103600083015261219a8184612147565b905092915050565b6000819050919050565b6121b5816121a2565b81146121c057600080fd5b50565b6000813590506121d2816121ac565b92915050565b6000602082840312156121ee576121ed61202b565b5b60006121fc848285016121c3565b91505092915050565b600073ffffffffffffffffffffffffffffffffffffffff82169050919050565b600061223082612205565b9050919050565b61224081612225565b82525050565b600060208201905061225b6000830184612237565b92915050565b61226a81612225565b811461227557600080fd5b50565b60008135905061228781612261565b92915050565b600080604083850312156122a4576122a361202b565b5b60006122b285828601612278565b92505060206122c3858286016121c3565b9150509250929050565b600081519050919050565b600082825260208201905092915050565b6000819050602082019050919050565b600061230482612205565b9050919050565b612314816122f9565b82525050565b612323816121a2565b82525050565b612332816120ba565b82525050565b60608201600082015161234e600085018261230b565b506020820151612361602085018261231a565b5060408201516123746040850182612329565b50505050565b60006123868383612338565b60608301905092915050565b6000602082019050919050565b60006123aa826122cd565b6123b481856122d8565b93506123bf836122e9565b8060005b838110156123f05781516123d7888261237a565b97506123e283612392565b9250506001810190506123c3565b5085935050505092915050565b60006020820190508181036000830152612417818461239f565b905092915050565b612428816121a2565b82525050565b6000602082019050612443600083018461241f565b92915050565b6000806000606084860312156124625761246161202b565b5b600061247086828701612278565b935050602061248186828701612278565b9250506040612492868287016121c3565b9150509250925092565b6000602082840312156124b2576124b161202b565b5b60006124c084828501612278565b91505092915050565b600080fd5b600080fd5b7f4e487b7100000000000000000000000000000000000000000000000000000000600052604160045260246000fd5b61250b82612136565b810181811067ffffffffffffffff8211171561252a576125296124d3565b5b80604052505050565b600061253d612021565b90506125498282612502565b919050565b600067ffffffffffffffff821115612569576125686124d3565b5b61257282612136565b9050602081019050919050565b82818337600083830152505050565b60006125a161259c8461254e565b612533565b9050828152602081018484840111156125bd576125bc6124ce565b5b6125c884828561257f565b509392505050565b600082601f8301126125e5576125e46124c9565b5b81356125f584826020860161258e565b91505092915050565b600080604083850312156126155761261461202b565b5b600083013567ffffffffffffffff81111561263357612632612030565b5b61263f858286016125d0565b9250506020612650858286016121c3565b9150509250929050565b612663816120ba565b811461266e57600080fd5b50565b6000813590506126808161265a565b92915050565b6000806040838503121561269d5761269c61202b565b5b60006126ab85828601612278565b92505060206126bc85828601612671565b9150509250929050565b600067ffffffffffffffff8211156126e1576126e06124d3565b5b6126ea82612136565b9050602081019050919050565b600061270a612705846126c6565b612533565b905082815260208101848484011115612726576127256124ce565b5b61273184828561257f565b509392505050565b600082601f83011261274e5761274d6124c9565b5b813561275e8482602086016126f7565b91505092915050565b600080600080608085870312156127815761278061202b565b5b600061278f87828801612278565b94505060206127a087828801612278565b93505060406127b1878288016121c3565b925050606085013567ffffffffffffffff8111156127d2576127d1612030565b5b6127de87828801612739565b91505092959194509250565b600080604083850312156128015761280061202b565b5b600061280f85828601612278565b925050602061282085828601612278565b9150509250929050565b7f4e487b7100000000000000000000000000000000000000000000000000000000600052602260045260246000fd5b6000600282049050600182168061287157607f821691505b6020821081036128845761288361282a565b5b50919050565b7f4e487b7100000000000000000000000000000000000000000000000000000000600052601160045260246000fd5b60006128c4826121a2565b91506128cf836121a2565b92508282039050818111156128e7576128e661288a565b5b92915050565b7f4e487b7100000000000000000000000000000000000000000000000000000000600052603260045260246000fd5b6000612927826121a2565b91507fffffffffffffffffffffffffffffffffffffffffffffffffffffffffffffffff82036129595761295861288a565b5b600182019050919050565b60006060820190506129796000830186612237565b612986602083018561241f565b6129936040830184612237565b949350505050565b7f4f6e6c79206d61726b6574706c616365206f776e65722063616e20757064617460008201527f65206c697374696e672070726963652e00000000000000000000000000000000602082015250565b60006129f76030836120fb565b9150612a028261299b565b604082019050919050565b60006020820190508181036000830152612a26816129ea565b9050919050565b7f546f6b656e20616c726561647920736f6c640000000000000000000000000000600082015250565b6000612a636012836120fb565b9150612a6e82612a2d565b602082019050919050565b60006020820190508181036000830152612a9281612a56565b9050919050565b7f506c65617365207375626d6974207468652061736b696e67207072696365206960008201527f6e206f7264657220746f20636f6d706c65746520746865207075726368617365602082015250565b6000612af56040836120fb565b9150612b0082612a99565b604082019050919050565b60006020820190508181036000830152612b2481612ae8565b9050919050565b600081905092915050565b6000612b41826120f0565b612b4b8185612b2b565b9350612b5b81856020860161210c565b80840191505092915050565b6000612b738285612b36565b9150612b7f8284612b36565b91508190509392505050565b60008190508160005260206000209050919050565b60006020601f8301049050919050565b600082821b905092915050565b600060088302612bed7fffffffffffffffffffffffffffffffffffffffffffffffffffffffffffffffff82612bb0565b612bf78683612bb0565b95508019841693508086168417925050509392505050565b6000819050919050565b6000612c34612c2f612c2a846121a2565b612c0f565b6121a2565b9050919050565b6000819050919050565b612c4e83612c19565b612c62612c5a82612c3b565b848454612bbd565b825550505050565b600090565b612c77612c6a565b612c82818484612c45565b505050565b5b81811015612ca657612c9b600082612c6f565b600181019050612c88565b5050565b601f821115612ceb57612cbc81612b8b565b612cc584612ba0565b81016020851015612cd4578190505b612ce8612ce085612ba0565b830182612c87565b50505b505050565b600082821c905092915050565b6000612d0e60001984600802612cf0565b1980831691505092915050565b6000612d278383612cfd565b9150826002028217905092915050565b612d40826120f0565b67ffffffffffffffff811115612d5957612d586124d3565b5b612d638254612859565b612d6e828285612caa565b600060209050601f831160018114612da15760008415612d8f578287015190505b612d998582612d1b565b865550612e01565b601f198416612daf86612b8b565b60005b82811015612dd757848901518255600182019150602085019450602081019050612db2565b86831015612df45784890151612df0601f891682612cfd565b8355505b6001600288020188555050505b505050505050565b7f5072696365206d757374206265206174206c6561737420312077656900000000600082015250565b6000612e3f601c836120fb565b9150612e4a82612e09565b602082019050919050565b60006020820190508181036000830152612e6e81612e32565b9050919050565b7f5072696365206d75737420626520657175616c20746f206c697374696e67207060008201527f7269636500000000000000000000000000000000000000000000000000000000602082015250565b6000612ed16024836120fb565b9150612edc82612e75565b604082019050919050565b60006020820190508181036000830152612f0081612ec4565b9050919050565b6000606082019050612f1c6000830186612237565b612f29602083018561241f565b612f3660408301846120c6565b949350505050565b600081519050919050565b600082825260208201905092915050565b6000612f6582612f3e565b612f6f8185612f49565b9350612f7f81856020860161210c565b612f8881612136565b840191505092915050565b6000608082019050612fa86000830187612237565b612fb56020830186612237565b612fc2604083018561241f565b8181036060830152612fd48184612f5a565b905095945050505050565b600081519050612fee81612061565b92915050565b60006020828403121561300a5761300961202b565b5b600061301884828501612fdf565b91505092915050565b60006040820190506130366000830185612237565b613043602083018461241f565b9392505050565b7f4e487b7100000000000000000000000000000000000000000000000000000000600052601260045260246000fdfea2646970667358221220367593da63cf753775de2adad0cd7ab8e1b7e81bc5957927d3f64c5198eb2c1064736f6c63430008140033",
  "linkReferences": {},
  "deployedLinkReferences": {}
}